S00C000061736B342E73726563A5
S11300000C9448000C945A000C945A000C945A0016
S11300100C945A000C945A000C945A000C94DF006F
S11300200C945A000C945A000C945A000C945A00E4
S11300300C945A000C945A000C945A000C945A00D4
S11300400C945A000C945A000C945A000C945A00C4
S11300500C945A000C945A000C945A000C945A00B4
S11300600C945A000C945A000C945A000C945A00A4
S11300700C945A000C9471000C945A000C945A007D
S11300800C945A000C945A000C945A000C945A0084
S113009011241FBECFEFCDBFDFE3DEBF28E2A0E017
S11300A0B8E201C01D92A230B207E1F70E945C00E1
S11300B00C942C010C940000E0E6F4E08081836051
S11300C08083848183608483E0EAF4E086898A60A3
S11300D0868BE0E0FAE081E083838EE0808378948D
S11300E0FFCF1F920F920FB60F9211245F936F935D
S11300F07F938F939F93AF93BF93EF93FF93E0EA24
S1130100F4E081858187E0E0FAE080818E7F80835E
S113011081818E7E818380910028909101280097AF
S1130120B9F488E287A38FE081A784E186A38BE0FA
S113013080A786A180A387A181A3E0E6F4E094814F
S113014081E089278483948182E08927848313C092
S1130150019759F4E0E0FAE08AE086A385E080A7FD
S113016086A180A387A181A306C0E0E6F4E0848190
S11301708360848309C0E0E0FAE083E0838781E060
S113018082878081816080838091002890910128FA
S1130190019663E070E00E9404018093002890932C
S11301A00128FF91EF91BF91AF919F918F917F9122
S11301B06F915F910F900FBE0F901F9018951F9233
S11301C00F920FB60F9211248F939F93EF93FF9387
S11301D0E0E6F4E0948181E08927848380910B0A2E
S11301E081FF06C0848192E08927848390930B0A5F
S11301F081E080930B0AFF91EF919F918F910F9073
S11302000FBE0F901F90189597FB072E16F40094BD
S113021007D077FD09D00E94180107FC05D03EF4F1
S1130220909581959F4F0895709561957F4F08959E
S1130230AA1BBB1B51E107C0AA1FBB1FA617B70708
S113024010F0A61BB70B881F991F5A95A9F7809524
S10F02509095BC01CD010895F894FFCFF7
S9030000FC
