:100000000C9448000C945A000C945A000C945A001A
:100010000C945A000C945A000C945A000C94500101
:100020000C945A000C945A000C942B010C945A0016
:100030000C945A000C945A000C945A000C945A00D8
:100040000C945A000C945A000C945A000C945A00C8
:100050000C945A000C945A000C945A000C945C00B6
:100060000C945A000C945A000C945A000C945A00A8
:100070000C945A000C9496000C945A000C945A005C
:100080000C945A000C945A000C945A000C945A0088
:1000900011241FBECFEFCDBFDFE3DEBF28E2A0E01B
:1000A000B8E201C01D92A830B207E1F70E94A90191
:1000B0000C9408020C9400001F920F920FB60F923E
:1000C00011242F933F938F939F93EF93FF93F89473
:1000D000E0E0F6E080899189809301288385826041
:1000E000838780818E7F80838091012890E02289A0
:1000F00033898217930720F481E0809366040AC055
:1001000020911406309115062817390718F482E05B
:10011000809366047894FF91EF919F918F913F9126
:100120002F910F900FBE0F901F9018951F920F9256
:100130000FB60F9211242F933F934F935F936F93BA
:100140007F938F939F93AF93BF93CF93DF93EF935F
:10015000FF93F8948091A904982F907285FF27C08F
:1001600020916404263019F586FD21C0E0E0FAE014
:1001700010A211A28FEF90E086A397A3A0E0B6E0B3
:1001800052968D919C91539750962D913C915197F9
:10019000821B930B82A793A780E282878081816074
:1001A0008083E0EAF4E081858062818740C086FF39
:1001B0001FC0809164048530D9F4911119C0E0E02A
:1001C000FAE091E0938724E130E026A337A32AE008
:1001D00030E020A731A7818183608183928780816D
:1001E00081608083E0EAF4E08185806481871FC0BC
:1001F000C0E6D4E08E8187608E838EE290E00E941C
:10020000C5018C8184608C838C8182608C838C811D
:1002100081608C83E0EAF4E0818580668187E0E09C
:10022000F6E080818160808380858160808778941A
:10023000FF91EF91DF91CF91BF91AF919F918F91FE
:100240007F916F915F914F913F912F910F900FBED2
:100250000F901F9018951F920F920FB60F921124B6
:100260008F93EF93FF93F894E0E0FAE080818E7F24
:10027000808381E080936504838580628387E0E0EA
:10028000F6E08081816080838085816080877894BA
:10029000FF91EF918F910F900FBE0F901F901895C7
:1002A0001F920F920FB60F9211248F939F93EF938B
:1002B000FF93F894E0E6F4E0948184E08927848356
:1002C000809100288330A1F482E0858384E08583D7
:1002D00010920028E0E0FAE080818E7F8083E0E0E9
:1002E000F6E080818160808380858160808703C0A3
:1002F0008F5F80930028E0E0FAE083858160838748
:100300007894FF91EF919F918F910F900FBE0F9076
:100310001F901895E0E0F6E0808180838081826004
:1003200080838081816080838681876086838485E5
:100330008160848782E390E0828B938B88EC90E0ED
:10034000848B958B8285826082878481846084839C
:100350000895E0E6F4E0808187608083848187608F
:100360008483E0EAF4E086898A60868B85898A60E6
:10037000858B8EE08093000A0E948A017894E0E0E9
:10038000F6E0808581608087FFCF609104287091BE
:1003900005280E94CC0108950F931F93CF93DF93FC
:1003A000FB01238121FD03C08FEF9FEF2CC022FFB3
:1003B00016C046815781248135814217530744F482
:1003C000A081B1819D012F5F3F4F208331838C93AA
:1003D000268137812F5F3F4F2683378314C08B01DF
:1003E000EC01FB010084F185E02D0995892BE1F6F4
:1003F000D80116968D919C911797019616968D931C
:100400009C931797CE01DF91CF911F910F91089583
:04041000F894FFCF8E
:00000001FF
