S00C000061736B322E73726563A7
S11300000C9448000C945A000C945A000C945A0016
S11300100C945A000C945A000C945A000C94C2008C
S11300200C949E000C945A000C945A000C945A00A0
S11300300C945A000C945A000C945A000C945A00D4
S11300400C945A000C945A000C945A000C945A00C4
S11300500C945A000C945A000C945A000C945A00B4
S11300600C945A000C945A000C945A000C945A00A4
S11300700C945A000C9479000C945A000C945A0075
S11300800C945A000C945A000C945A000C945A0084
S113009011241FBECFEFCDBFDFE3DEBF28E2A0E017
S11300A0B8E201C01D92A230B207E1F70E945C00E1
S11300B00C94FE000C940000E0E6F4E0808187607C
S11300C0808391E09683848186608483E0EAF4E00F
S11300D085898A60858BE0E0FAE08FE080839383F2
S11300E080E880A38FEF81A38285826082877894E1
S11300F0FFCF1F920F920FB60F9211248F93EF939D
S1130100FF93E0E6F4E084818160848384E0868365
S1130110E0E0FAE08385816083878285816082875D
S1130120E0EAF4E0818580628187158AFF91EF918E
S11301308F910F900FBE0F901F9018951F920F92E2
S11301400FB60F9211248F93EF93FF93E0E6F4E040
S113015084818160848386E08683E0E0FAE083859D
S1130160816083878285816082871092B50483854C
S113017082608387FF91EF918F910F900FBE0F9054
S11301801F9018951F920F920FB60F9211248F9300
S11301909F93EF93FF9380910028909101280097FB
S11301A089F4E0E6F4E084818660848381E08683D8
S11301B080E28093200A81E090E08093002890936D
S11301C001280EC0019761F48AE08093B504E0E051
S11301D0FAE082858F7E828710920028109201288F
S11301E0E0E0FAE0838581608387FF91EF919F913E
S11301F08F910F900FBE0F901F901895F894FFCF1A
S9030000FC
