:100000000C9448000C945A000C945A000C945A001A
:100010000C945A000C945A000C945A000C945A00F8
:100020000C945A000C945A000C945A000C945A00E8
:100030000C945A000C945A000C945A000C945A00D8
:100040000C945A000C945A000C945A000C945A00C8
:100050000C945A000C945A000C945A000C945A00B8
:100060000C945A000C945A000C945A000C945A00A8
:100070000C945A000C9472000C945A000C945A0080
:100080000C945A000C945A000C945A000C945A0088
:1000900011241FBECFEFCDBFDFE3DEBF28E2A0E01B
:1000A000B8E201C01D92A630B207E1F70E945C00E1
:1000B0000C9404010C940000E0E6F4E08081876079
:1000C0008083848187608483E0EAF4E085898A60A4
:1000D000858B86898A60868B78948EE290E00E9478
:1000E000C100FBCF1F920F920FB60F9211242F93D6
:1000F0008F939F93EF93FF932091A904822F90E019
:100100008036910571F4E0E6F4E081E0868383ECCB
:1001100099E00197F1F700C0000084818160848339
:1001200024C08032910589F4809164048730E9F01D
:1001300080916404813011F484E001C086E0E0E63F
:10014000F4E09481892B848310C08034910569F494
:1001500080916404813049F080916404873011F407
:1001600082E001C086E0809366042093A904FF9199
:10017000EF919F918F912F910F900FBE0F901F9035
:10018000189560910228709103280E94C800089574
:100190000F931F93CF93DF93FB01238121FD03C0B6
:1001A0008FEF9FEF2CC022FF16C04681578124811C
:1001B00035814217530744F4A081B1819D012F5F1F
:1001C0003F4F208331838C93268137812F5F3F4FB0
:1001D0002683378314C08B01EC01FB010084F18579
:1001E000E02D0995892BE1F6D80116968D919C9109
:1001F0001797019616968D939C931797CE01DF91D2
:0C020000CF911F910F910895F894FFCF4B
:00000001FF
