S00C000061736B332E73726563A6
S11300000C9448000C945A000C945A000C945A0016
S11300100C945A000C945A000C945A000C942F021D
S11300200C94FF010C945A000C945A000C945A003E
S11300300C945A000C945A000C945A000C945A00D4
S11300400C945A000C945A000C945A000C945A00C4
S11300500C945A000C945A000C945E010C94940174
S11300600C945A000C945A000C945A000C945A00A4
S11300700C945A000C94C4010C945A000C945A0029
S11300800C945A000C945A000C945A000C945A0084
S113009011241FBECFEFCDBFDFE3DEBF28E2A0E017
S11300A0B8E201C01D92AE30B207E1F70E948600AB
S11300B00C9477020C94000083E080936404809194
S11300C0042890910528019683709078992324F44C
S11300D001978C6F9F6F0196809304289093052855
S11300E0089586E080936404809104289091052803
S11300F0039683709078992324F401978C6F9F6FF3
S1130100019680930428909305280895E0E6F4E08E
S1130110808187608083848187608483E0EAF4E05F
S113012085898A60858BA0E0BAE08FE08C9391E0AA
S113013013969C931397E0E0F6E08081808380819E
S11301408D7F808380818160808387E0868384853E
S11301508160848782858160828729E130E0228BF7
S1130160338B908783E191968C9391971A968C9117
S11301701A9782601A968C937894809106289091AD
S11301800728A0910828B0910928892B8A2B8B2B4A
S113019099F480910A2890910B28A0910C28B09191
S11301A00D28892B8A2B8B2B39F48091022890916E
S11301B00328892B09F076C0809106068630E9F67B
S11301C0F8948091022890910328892B31F481E0DE
S11301D090E0809302289093032885E08093640440
S11301E0809104289091052881309105F1F01CF448
S11301F0892B39F055C08230910559F10397E9F103
S11302004FC08091062890910728A0910828B091AA
S113021009280196A11DB11D8093062890930728F3
S1130220A0930828B09309283BC080910A28909194
S11302300B28A0910C28B0910D280197A109B109B0
S113024080930A2890930B28A0930C28B0930D2830
S113025027C08091062890910728A0910828B09182
S113026009280197A109B1098093062890930728CA
S1130270A0930828B093092813C080910A2890916C
S11302800B28A0910C28B0910D280196A11DB11D39
S113029080930A2890930B28A0930C28B0930D28E0
S11302A078946BCF87E080936404E0E0F6E080818B
S11302B08E7F8083F89480E090E008951F920F92DF
S11302C00FB60F9211242F933F934F935F936F9325
S11302D07F938F939F93AF93BF93EF93FF938091FB
S11302E01006909111064A9758F080910028909139
S11302F00128892B19F00E945C0002C00E94710041
S113030081E080930B06FF91EF91BF91AF919F9194
S11303108F917F916F915F914F913F912F910F90AA
S11303200FBE0F901F9018951F920F920FB60F9249
S113033011242F933F934F935F936F937F938F93E6
S11303409F93AF93BF93EF93FF9380910028909175
S11303500128892B19F00E94710002C00E945C00E0
S113036082E080930B06FF91EF91BF91AF919F9133
S11303708F917F916F915F914F913F912F910F904A
S11303800FBE0F901F9018951F920F920FB60F92E9
S113039011248F939F93EF93FF9387E080936604D8
S11303A081E090E0809300289093012880910428B4
S11303B090910528029683709078992324F40197EC
S11303C08C6F9F6F01968093042890930528E0E03A
S11303D0FAE08AE380A383858160838782858160D4
S11303E08287E0EAF4E0818580628187FF91EF9162
S11303F09F918F910F900FBE0F901F9018951F9291
S11304000F920FB60F9211248F93EF93FF93E0E0B6
S1130410F6E082858E7F828786E086838081826093
S113042080838285826082878481816084838085E1
S113043081608087E0E0FAE087E280A383858160C1
S11304408387828581608287838582608387FF9129
S1130450EF918F910F900FBE0F901F9018951F92E0
S11304600F920FB60F9211248F939F93AF93BF9364
S1130470EF93FF938091002890910128892B21F418
S113048087E08093060603C085E080930606E0E0DB
S1130490F6E080818D7F808382858160828782857A
S11304A08D7F828784818E7F8483A0E6B4E0149656
S11304B08C911497876014968C9381E08087E0E098
S11304C0FAE083E181A383858260838782858260E9
S11304D08287838581608387FF91EF91BF91AF917C
S11304E09F918F910F900FBE0F901F901895F894C5
S10504F0FFCF38
S9030000FC
